{
  "_format": "hh-sol-artifact-1",
  "contractName": "JobRegistry",
  "sourceName": "contracts/core/JobRegistry.sol",
  "abi": [
    {
      "inputs": [
        {
          "internalType": "address",
          "name": "admin",
          "type": "address"
        },
        {
          "internalType": "address",
          "name": "edgeToken",
          "type": "address"
        },
        {
          "internalType": "address",
          "name": "stakingManager",
          "type": "address"
        },
        {
          "internalType": "address",
          "name": "proofVerifier_",
          "type": "address"
        },
        {
          "internalType": "address",
          "name": "oracle_",
          "type": "address"
        },
        {
          "internalType": "uint256",
          "name": "minBounty_",
          "type": "uint256"
        },
        {
          "internalType": "uint32",
          "name": "claimTimeout_",
          "type": "uint32"
        },
        {
          "internalType": "uint32",
          "name": "proofTimeout_",
          "type": "uint32"
        }
      ],
      "stateMutability": "nonpayable",
      "type": "constructor"
    },
    {
      "inputs": [],
      "name": "AccessControlBadConfirmation",
      "type": "error"
    },
    {
      "inputs": [
        {
          "internalType": "address",
          "name": "account",
          "type": "address"
        },
        {
          "internalType": "bytes32",
          "name": "neededRole",
          "type": "bytes32"
        }
      ],
      "name": "AccessControlUnauthorizedAccount",
      "type": "error"
    },
    {
      "inputs": [],
      "name": "EnforcedPause",
      "type": "error"
    },
    {
      "inputs": [],
      "name": "ExpectedPause",
      "type": "error"
    },
    {
      "inputs": [],
      "name": "ReentrancyGuardReentrantCall",
      "type": "error"
    },
    {
      "anonymous": false,
      "inputs": [
        {
          "indexed": false,
          "internalType": "address",
          "name": "proofVerifier",
          "type": "address"
        },
        {
          "indexed": false,
          "internalType": "address",
          "name": "oracle",
          "type": "address"
        },
        {
          "indexed": false,
          "internalType": "uint256",
          "name": "minBounty",
          "type": "uint256"
        },
        {
          "indexed": false,
          "internalType": "uint32",
          "name": "claimTimeout",
          "type": "uint32"
        },
        {
          "indexed": false,
          "internalType": "uint32",
          "name": "proofTimeout",
          "type": "uint32"
        }
      ],
      "name": "ConfigUpdated",
      "type": "event"
    },
    {
      "anonymous": false,
      "inputs": [
        {
          "indexed": true,
          "internalType": "uint256",
          "name": "jobId",
          "type": "uint256"
        }
      ],
      "name": "JobCanceled",
      "type": "event"
    },
    {
      "anonymous": false,
      "inputs": [
        {
          "indexed": true,
          "internalType": "uint256",
          "name": "jobId",
          "type": "uint256"
        },
        {
          "indexed": true,
          "internalType": "address",
          "name": "worker",
          "type": "address"
        }
      ],
      "name": "JobClaimed",
      "type": "event"
    },
    {
      "anonymous": false,
      "inputs": [
        {
          "indexed": true,
          "internalType": "uint256",
          "name": "jobId",
          "type": "uint256"
        }
      ],
      "name": "JobRunning",
      "type": "event"
    },
    {
      "anonymous": false,
      "inputs": [
        {
          "indexed": true,
          "internalType": "uint256",
          "name": "jobId",
          "type": "uint256"
        },
        {
          "indexed": true,
          "internalType": "address",
          "name": "worker",
          "type": "address"
        },
        {
          "indexed": false,
          "internalType": "uint256",
          "name": "workerPayout",
          "type": "uint256"
        },
        {
          "indexed": false,
          "internalType": "uint256",
          "name": "burned",
          "type": "uint256"
        }
      ],
      "name": "JobSettled",
      "type": "event"
    },
    {
      "anonymous": false,
      "inputs": [
        {
          "indexed": true,
          "internalType": "uint256",
          "name": "jobId",
          "type": "uint256"
        },
        {
          "indexed": true,
          "internalType": "address",
          "name": "client",
          "type": "address"
        },
        {
          "indexed": false,
          "internalType": "uint256",
          "name": "bounty",
          "type": "uint256"
        },
        {
          "indexed": false,
          "internalType": "string",
          "name": "modelCid",
          "type": "string"
        },
        {
          "indexed": false,
          "internalType": "string",
          "name": "dataCid",
          "type": "string"
        },
        {
          "indexed": false,
          "internalType": "bytes32",
          "name": "taskDigest",
          "type": "bytes32"
        }
      ],
      "name": "JobSubmitted",
      "type": "event"
    },
    {
      "anonymous": false,
      "inputs": [
        {
          "indexed": true,
          "internalType": "uint256",
          "name": "jobId",
          "type": "uint256"
        }
      ],
      "name": "JobVerified",
      "type": "event"
    },
    {
      "anonymous": false,
      "inputs": [
        {
          "indexed": false,
          "internalType": "address",
          "name": "account",
          "type": "address"
        }
      ],
      "name": "Paused",
      "type": "event"
    },
    {
      "anonymous": false,
      "inputs": [
        {
          "indexed": true,
          "internalType": "uint256",
          "name": "jobId",
          "type": "uint256"
        },
        {
          "indexed": true,
          "internalType": "address",
          "name": "worker",
          "type": "address"
        },
        {
          "indexed": false,
          "internalType": "bytes32",
          "name": "outputDigest",
          "type": "bytes32"
        }
      ],
      "name": "ProofSubmitted",
      "type": "event"
    },
    {
      "anonymous": false,
      "inputs": [
        {
          "indexed": true,
          "internalType": "bytes32",
          "name": "role",
          "type": "bytes32"
        },
        {
          "indexed": true,
          "internalType": "bytes32",
          "name": "previousAdminRole",
          "type": "bytes32"
        },
        {
          "indexed": true,
          "internalType": "bytes32",
          "name": "newAdminRole",
          "type": "bytes32"
        }
      ],
      "name": "RoleAdminChanged",
      "type": "event"
    },
    {
      "anonymous": false,
      "inputs": [
        {
          "indexed": true,
          "internalType": "bytes32",
          "name": "role",
          "type": "bytes32"
        },
        {
          "indexed": true,
          "internalType": "address",
          "name": "account",
          "type": "address"
        },
        {
          "indexed": true,
          "internalType": "address",
          "name": "sender",
          "type": "address"
        }
      ],
      "name": "RoleGranted",
      "type": "event"
    },
    {
      "anonymous": false,
      "inputs": [
        {
          "indexed": true,
          "internalType": "bytes32",
          "name": "role",
          "type": "bytes32"
        },
        {
          "indexed": true,
          "internalType": "address",
          "name": "account",
          "type": "address"
        },
        {
          "indexed": true,
          "internalType": "address",
          "name": "sender",
          "type": "address"
        }
      ],
      "name": "RoleRevoked",
      "type": "event"
    },
    {
      "anonymous": false,
      "inputs": [
        {
          "indexed": true,
          "internalType": "address",
          "name": "staking",
          "type": "address"
        }
      ],
      "name": "StakingLinked",
      "type": "event"
    },
    {
      "anonymous": false,
      "inputs": [
        {
          "indexed": false,
          "internalType": "address",
          "name": "account",
          "type": "address"
        }
      ],
      "name": "Unpaused",
      "type": "event"
    },
    {
      "inputs": [],
      "name": "ARBITER_ROLE",
      "outputs": [
        {
          "internalType": "bytes32",
          "name": "",
          "type": "bytes32"
        }
      ],
      "stateMutability": "view",
      "type": "function"
    },
    {
      "inputs": [],
      "name": "BURNER_ROLE",
      "outputs": [
        {
          "internalType": "bytes32",
          "name": "",
          "type": "bytes32"
        }
      ],
      "stateMutability": "view",
      "type": "function"
    },
    {
      "inputs": [],
      "name": "DEFAULT_ADMIN_ROLE",
      "outputs": [
        {
          "internalType": "bytes32",
          "name": "",
          "type": "bytes32"
        }
      ],
      "stateMutability": "view",
      "type": "function"
    },
    {
      "inputs": [
        {
          "internalType": "address",
          "name": "",
          "type": "address"
        }
      ],
      "name": "activeJobs",
      "outputs": [
        {
          "internalType": "uint256",
          "name": "",
          "type": "uint256"
        }
      ],
      "stateMutability": "view",
      "type": "function"
    },
    {
      "inputs": [
        {
          "internalType": "address",
          "name": "worker",
          "type": "address"
        }
      ],
      "name": "activeJobsOf",
      "outputs": [
        {
          "internalType": "uint256",
          "name": "",
          "type": "uint256"
        }
      ],
      "stateMutability": "view",
      "type": "function"
    },
    {
      "inputs": [
        {
          "internalType": "uint256",
          "name": "jobId",
          "type": "uint256"
        }
      ],
      "name": "cancelUnclaimed",
      "outputs": [],
      "stateMutability": "nonpayable",
      "type": "function"
    },
    {
      "inputs": [
        {
          "internalType": "uint256",
          "name": "id",
          "type": "uint256"
        }
      ],
      "name": "claimJob",
      "outputs": [],
      "stateMutability": "nonpayable",
      "type": "function"
    },
    {
      "inputs": [],
      "name": "claimTimeout",
      "outputs": [
        {
          "internalType": "uint32",
          "name": "",
          "type": "uint32"
        }
      ],
      "stateMutability": "view",
      "type": "function"
    },
    {
      "inputs": [],
      "name": "edge",
      "outputs": [
        {
          "internalType": "contract IEdgeToken",
          "name": "",
          "type": "address"
        }
      ],
      "stateMutability": "view",
      "type": "function"
    },
    {
      "inputs": [
        {
          "internalType": "uint256",
          "name": "jobId",
          "type": "uint256"
        }
      ],
      "name": "getJob",
      "outputs": [
        {
          "components": [
            {
              "internalType": "uint256",
              "name": "id",
              "type": "uint256"
            },
            {
              "internalType": "address",
              "name": "client",
              "type": "address"
            },
            {
              "internalType": "address",
              "name": "worker",
              "type": "address"
            },
            {
              "internalType": "uint256",
              "name": "bounty",
              "type": "uint256"
            },
            {
              "internalType": "string",
              "name": "modelCid",
              "type": "string"
            },
            {
              "internalType": "string",
              "name": "dataCid",
              "type": "string"
            },
            {
              "internalType": "bytes32",
              "name": "taskDigest",
              "type": "bytes32"
            },
            {
              "internalType": "bytes32",
              "name": "outputDigest",
              "type": "bytes32"
            },
            {
              "internalType": "enum JobRegistry.JobStatus",
              "name": "status",
              "type": "uint8"
            },
            {
              "internalType": "uint64",
              "name": "createdAt",
              "type": "uint64"
            },
            {
              "internalType": "uint64",
              "name": "claimedAt",
              "type": "uint64"
            },
            {
              "internalType": "uint32",
              "name": "workUnits",
              "type": "uint32"
            },
            {
              "internalType": "uint64",
              "name": "deadline",
              "type": "uint64"
            }
          ],
          "internalType": "struct JobRegistry.Job",
          "name": "",
          "type": "tuple"
        }
      ],
      "stateMutability": "view",
      "type": "function"
    },
    {
      "inputs": [
        {
          "internalType": "bytes32",
          "name": "role",
          "type": "bytes32"
        }
      ],
      "name": "getRoleAdmin",
      "outputs": [
        {
          "internalType": "bytes32",
          "name": "",
          "type": "bytes32"
        }
      ],
      "stateMutability": "view",
      "type": "function"
    },
    {
      "inputs": [
        {
          "internalType": "bytes32",
          "name": "role",
          "type": "bytes32"
        },
        {
          "internalType": "address",
          "name": "account",
          "type": "address"
        }
      ],
      "name": "grantRole",
      "outputs": [],
      "stateMutability": "nonpayable",
      "type": "function"
    },
    {
      "inputs": [
        {
          "internalType": "bytes32",
          "name": "role",
          "type": "bytes32"
        },
        {
          "internalType": "address",
          "name": "account",
          "type": "address"
        }
      ],
      "name": "hasRole",
      "outputs": [
        {
          "internalType": "bool",
          "name": "",
          "type": "bool"
        }
      ],
      "stateMutability": "view",
      "type": "function"
    },
    {
      "inputs": [
        {
          "internalType": "uint256",
          "name": "",
          "type": "uint256"
        }
      ],
      "name": "jobs",
      "outputs": [
        {
          "internalType": "uint256",
          "name": "id",
          "type": "uint256"
        },
        {
          "internalType": "address",
          "name": "client",
          "type": "address"
        },
        {
          "internalType": "address",
          "name": "worker",
          "type": "address"
        },
        {
          "internalType": "uint256",
          "name": "bounty",
          "type": "uint256"
        },
        {
          "internalType": "string",
          "name": "modelCid",
          "type": "string"
        },
        {
          "internalType": "string",
          "name": "dataCid",
          "type": "string"
        },
        {
          "internalType": "bytes32",
          "name": "taskDigest",
          "type": "bytes32"
        },
        {
          "internalType": "bytes32",
          "name": "outputDigest",
          "type": "bytes32"
        },
        {
          "internalType": "enum JobRegistry.JobStatus",
          "name": "status",
          "type": "uint8"
        },
        {
          "internalType": "uint64",
          "name": "createdAt",
          "type": "uint64"
        },
        {
          "internalType": "uint64",
          "name": "claimedAt",
          "type": "uint64"
        },
        {
          "internalType": "uint32",
          "name": "workUnits",
          "type": "uint32"
        },
        {
          "internalType": "uint64",
          "name": "deadline",
          "type": "uint64"
        }
      ],
      "stateMutability": "view",
      "type": "function"
    },
    {
      "inputs": [
        {
          "internalType": "uint256",
          "name": "jobId",
          "type": "uint256"
        }
      ],
      "name": "markRunning",
      "outputs": [],
      "stateMutability": "nonpayable",
      "type": "function"
    },
    {
      "inputs": [],
      "name": "minBounty",
      "outputs": [
        {
          "internalType": "uint256",
          "name": "",
          "type": "uint256"
        }
      ],
      "stateMutability": "view",
      "type": "function"
    },
    {
      "inputs": [],
      "name": "nextJobId",
      "outputs": [
        {
          "internalType": "uint256",
          "name": "",
          "type": "uint256"
        }
      ],
      "stateMutability": "view",
      "type": "function"
    },
    {
      "inputs": [],
      "name": "oracle",
      "outputs": [
        {
          "internalType": "contract IGreenScoreOracle",
          "name": "",
          "type": "address"
        }
      ],
      "stateMutability": "view",
      "type": "function"
    },
    {
      "inputs": [],
      "name": "pause",
      "outputs": [],
      "stateMutability": "nonpayable",
      "type": "function"
    },
    {
      "inputs": [],
      "name": "paused",
      "outputs": [
        {
          "internalType": "bool",
          "name": "",
          "type": "bool"
        }
      ],
      "stateMutability": "view",
      "type": "function"
    },
    {
      "inputs": [],
      "name": "proofTimeout",
      "outputs": [
        {
          "internalType": "uint32",
          "name": "",
          "type": "uint32"
        }
      ],
      "stateMutability": "view",
      "type": "function"
    },
    {
      "inputs": [],
      "name": "proofVerifier",
      "outputs": [
        {
          "internalType": "contract IProofVerifier",
          "name": "",
          "type": "address"
        }
      ],
      "stateMutability": "view",
      "type": "function"
    },
    {
      "inputs": [
        {
          "internalType": "bytes32",
          "name": "role",
          "type": "bytes32"
        },
        {
          "internalType": "address",
          "name": "callerConfirmation",
          "type": "address"
        }
      ],
      "name": "renounceRole",
      "outputs": [],
      "stateMutability": "nonpayable",
      "type": "function"
    },
    {
      "inputs": [
        {
          "internalType": "bytes32",
          "name": "role",
          "type": "bytes32"
        },
        {
          "internalType": "address",
          "name": "account",
          "type": "address"
        }
      ],
      "name": "revokeRole",
      "outputs": [],
      "stateMutability": "nonpayable",
      "type": "function"
    },
    {
      "inputs": [
        {
          "internalType": "address",
          "name": "proofVerifier_",
          "type": "address"
        },
        {
          "internalType": "address",
          "name": "oracle_",
          "type": "address"
        },
        {
          "internalType": "uint256",
          "name": "minBounty_",
          "type": "uint256"
        },
        {
          "internalType": "uint32",
          "name": "claimTimeout_",
          "type": "uint32"
        },
        {
          "internalType": "uint32",
          "name": "proofTimeout_",
          "type": "uint32"
        }
      ],
      "name": "setConfig",
      "outputs": [],
      "stateMutability": "nonpayable",
      "type": "function"
    },
    {
      "inputs": [],
      "name": "staking",
      "outputs": [
        {
          "internalType": "contract IStakingManager",
          "name": "",
          "type": "address"
        }
      ],
      "stateMutability": "view",
      "type": "function"
    },
    {
      "inputs": [
        {
          "internalType": "string",
          "name": "modelCid",
          "type": "string"
        },
        {
          "internalType": "string",
          "name": "dataCid",
          "type": "string"
        },
        {
          "internalType": "uint32",
          "name": "workUnits",
          "type": "uint32"
        },
        {
          "internalType": "bytes32",
          "name": "taskDigest",
          "type": "bytes32"
        },
        {
          "internalType": "uint256",
          "name": "bounty",
          "type": "uint256"
        }
      ],
      "name": "submitJob",
      "outputs": [
        {
          "internalType": "uint256",
          "name": "jobId",
          "type": "uint256"
        }
      ],
      "stateMutability": "nonpayable",
      "type": "function"
    },
    {
      "inputs": [
        {
          "internalType": "uint256",
          "name": "jobId",
          "type": "uint256"
        },
        {
          "internalType": "bytes",
          "name": "proof",
          "type": "bytes"
        },
        {
          "internalType": "bytes32",
          "name": "outputDigest",
          "type": "bytes32"
        }
      ],
      "name": "submitProof",
      "outputs": [],
      "stateMutability": "nonpayable",
      "type": "function"
    },
    {
      "inputs": [
        {
          "internalType": "bytes4",
          "name": "interfaceId",
          "type": "bytes4"
        }
      ],
      "name": "supportsInterface",
      "outputs": [
        {
          "internalType": "bool",
          "name": "",
          "type": "bool"
        }
      ],
      "stateMutability": "view",
      "type": "function"
    },
    {
      "inputs": [],
      "name": "unpause",
      "outputs": [],
      "stateMutability": "nonpayable",
      "type": "function"
    }
  ],
  "bytecode": "0x60c0346200023957601f6200255038819003918201601f1916830191906001600160401b038311848410176200023e578161010092859260409586528339810103126200023957620000518262000254565b91620000606020820162000254565b6200006d83830162000254565b906200007c6060840162000254565b6200008a6080850162000254565b9160a085015192620000ad60e0620000a560c0890162000269565b970162000269565b60016002819055600555946001600160a01b0392898416156200020b578316908115620001de578316988915620001ae5780620000ee620000f5926200027b565b50620002fb565b506080528760a0528160018060a01b031993168360035416176003551690600454161760045560065563ffffffff67ffffffff000000006007549260201b1692169060018060401b031916171760075551907fc315772ce63f5151115be815ee05f2f30f1b39ac26a7f62d8629808bc283728e600080a261219290816200039e823960805181818161025101528181610fa301528181611337015281816113d201526117d9015260a05181818161089801526119600152f35b885162461bcd60e51b815260206004820152600960248201526807374616b696e673d360bc1b6044820152606490fd5b885162461bcd60e51b81526020600482015260066024820152650656467653d360d41b6044820152606490fd5b885162461bcd60e51b8152602060048201526007602482015266061646d696e3d360cc1b6044820152606490fd5b600080fd5b634e487b7160e01b600052604160045260246000fd5b51906001600160a01b03821682036200023957565b519063ffffffff821682036200023957565b6001600160a01b031660008181527fad3228b676f7d3cd4284a5443f17f1962b36e491b30a40b2405849e597ba5fb5602052604081205490919060ff16620002f757818052816020526040822081835260205260408220600160ff198254161790553391600080516020620025308339815191528180a4600190565b5090565b6001600160a01b031660008181527f89777fffb7045c97177d1161cd08d871365cb73d0b18f242761255a7718434cf60205260408120549091907fbb08418a67729a078f87bbc8d02a770929bb68f5bfdf134ae2ead6ed38e2f4ae9060ff166200039857808352826020526040832082845260205260408320600160ff1982541617905560008051602062002530833981519152339380a4600190565b50509056fe608080604052600436101561001357600080fd5b600090813560e01c90816301ffc9a714611c0c575080630e1da6c314611be8578063180aedf314611ae6578063248a9ca314611aba578063282c51f314611a7f5780632f2ff15d14611a4257806336568abe146119fa5780633f4ba83a1461198f5780634cf088d91461194a5780634d104adf1461190f57806357965fdd146117105780635c975abb146116ed578063621edbfc146116c75780636996b55a146116275780637dc0d1d0146115fe5780637fa417b3146115d55780638456cb591461157b57806388b3e3901461107f57806389b8db551461106157806391d1485414611016578063992ef3d914610fee578063a217fddf14610fd2578063adc2c98a14610f8d578063b0c2aa5e14610f6f578063b537c72014610e58578063bf22c45714610c21578063d547741f14610be0578063e3e4b9fb14610819578063f322e6d2146101a65763fcf4dd691461016b57600080fd5b346101a35760203660031901126101a3576020906040906001600160a01b03610192611df6565b168152600983522054604051908152f35b80fd5b50346101a35760a03660031901126101a3576004356001600160401b038111610815576101d7903690600401611e0c565b6024929192356001600160401b038111610811576101f9903690600401611e0c565b90936044359363ffffffff8516850361080c57610214612101565b61021c612122565b600654608435106107da576040516323b872dd60e01b81523360048201523060248201526084356044820152602081606481857f00000000000000000000000000000000000000000000000000000000000000006001600160a01b03165af19081156107cf5782916107a0575b501561076557600554946000198614610751576001860160055563ffffffff604051916102b583611c9b565b87835233602084015283604084015260843560608401526102d7368887611f4a565b60808401526102e736878b611f4a565b60a084015260643560c08401528360e0840152836101008401526001600160401b03421661012084015283610140840152166101608201528161018082015285825260086020526040822091815183556001830160018060a01b03602084015116906001600160601b0360a01b9182825416179055600284019060018060a01b03604085015116908254161790556060820151600384015560808201518051906001600160401b0382116106735781906103a46004870154611c61565b601f8111610701575b50602090601f8311600114610692578492610687575b50508160011b916000199060031b1c19161760048401555b60a08201518051906001600160401b0382116106735781906104006005870154611c61565b601f8111610623575b50602090601f83116001146105b45784926105a9575b50508160011b916000199060031b1c19161760058401555b60c0820151600684015560e0820151600784015561010082015190600982101561059557509361056b7f68779e99ce74f29fc1dbaf89db3ad6c35b374b4f5cfff6e46048dac0e211439b946105528560086001600160401b0361018060209e988e9c846105799c015460ff68ffffffffffffffff00610120850151881b1692169068ffffffffffffffffff191617178486015561050083610140830151168587019067ffffffffffffffff60481b82549160481b169067ffffffffffffffff60481b1916179055565b61016081015194909301805491909301516bffffffffffffffffffffffff60881b1990911660889490941b63ffffffff60881b1693909317921660a81b67ffffffffffffffff60a81b16919091179055565b60405197608435895260808b8a01526080890191611ef4565b918683036040880152611ef4565b9260643560608201528033940390a36001600255604051908152f35b634e487b7160e01b81526021600452602490fd5b01519050388061041f565b9250600586018452602084209084935b601f1984168510610608576001945083601f198116106105ef575b505050811b016005840155610437565b015160001960f88460031b161c191690553880806105df565b818101518355602094850194600190930192909101906105c4565b90915060058601845260208420601f840160051c81016020851061066c575b90849392915b601f830160051c8201811061065e575050610409565b868155859450600101610648565b5080610642565b634e487b7160e01b83526041600452602483fd5b0151905038806103c3565b9250600486018452602084209084935b601f19841685106106e6576001945083601f198116106106cd575b505050811b0160048401556103db565b015160001960f88460031b161c191690553880806106bd565b818101518355602094850194600190930192909101906106a2565b90915060048601845260208420601f840160051c81016020851061074a575b90849392915b601f830160051c8201811061073c5750506103ad565b868155859450600101610726565b5080610720565b634e487b7160e01b82526011600452602482fd5b60405162461bcd60e51b81526020600482015260136024820152721d1c985b9cd9995c919c9bdb4819985a5b1959606a1b6044820152606490fd5b6107c2915060203d6020116107c8575b6107ba8183611ccd565b810190611ea3565b38610289565b503d6107b0565b6040513d84823e3d90fd5b60405162461bcd60e51b815260206004820152600a6024820152693137bab73a3c9e36b4b760b11b6044820152606490fd5b600080fd5b8280fd5b5080fd5b50346101a3576020806003193601126108155760043590610838612122565b610840612101565b818352600881526040832061085783825414611f15565b6008810190815460ff81166009811015610bcc57610b9c57338652600984526040862054610b6a57604051630213119b60e51b8152336004820152602491907f00000000000000000000000000000000000000000000000000000000000000006001600160a01b03169086818581855afa908115610b5f578991610b32575b5015610b035790606083926040519485809263c5a7ce1160e01b82523360048301525afa928315610af85788908994610aa4575b50151580610a9b575b15610a6d5760881c63ffffffff16908215610a64575b6107d091828102928184041490151715610a52578215610a3e5750916109e99160099594930490603c8210610a35575b62093a80808311610a2c575b506002906109aa6109826001600160401b03804216951685611e72565b865467ffffffffffffffff60a81b191660a89190911b67ffffffffffffffff60a81b16178655565b0180546001600160a01b03191633179055825470ffffffffffffffff000000000000000000191660489190911b67ffffffffffffffff60481b16178255565b600160ff198254161790553384525280604083205533907fba70defbfa7d3f9e9b6dc1f54957246fe91ba0a9e2a22af5d57d760d91c5bbfe8380a3600160025580f35b91506002610965565b603c9150610959565b634e487b7160e01b60009081526012600452fd5b634e487b7160e01b8852601160045287fd5b60019250610929565b60405162461bcd60e51b815260048101879052600781840152666e6f2d6d65746160c81b6044820152606490fd5b50821515610913565b9350506060833d606011610af0575b81610ac060609383611ccd565b81010312610aec5782516040878501519401516001600160401b03811603610ae8573861090a565b8880fd5b8780fd5b3d9150610ab3565b6040513d8a823e3d90fd5b60405162461bcd60e51b815260048101879052600881850152676e6f2d7374616b6560c01b6044820152606490fd5b90508681813d8311610b58575b610b498183611ccd565b81010312610ae85751386108d6565b503d610b3f565b6040513d8b823e3d90fd5b60405162461bcd60e51b815260048101859052600a6024820152696861732d61637469766560b01b6044820152606490fd5b60405162461bcd60e51b81526004810185905260086024820152673737ba16b7b832b760c11b6044820152606490fd5b634e487b7160e01b87526021600452602487fd5b50346101a35760403660031901126101a357610c1d600435610c00611de0565b9080845283602052610c186001604086200154611fe8565b61208c565b5080f35b50346101a35760203660031901126101a357806040916101808351610c4581611c9b565b828152826020820152828582015282606082015260606080820152606060a08201528260c08201528260e08201528261010082015282610120820152826101408201528261016082015201526004358152600860205220600860405191610cab83611c9b565b8054835260018101546001600160a01b039081166020850152600282015416604084015260038101546060840152610ce560048201611cee565b6080840152610cf660058201611cee565b60a0840152600681015460c0840152600781015460e08401520154600960ff82161015610e42578060ff6001600160401b039216610100840152818160081c16610120840152818160481c1661014084015263ffffffff8160881c1661016084015260a81c166101808201526040518091602082528051602083015260018060a01b03602082015116604083015260018060a01b036040820151166060830152606081015160808301526001600160401b03610180610ddf610dc960808501516101a060a08801526101c0870190611d93565b60a0850151868203601f190160c0880152611d93565b9260c081015160e086015260e0810151610100860152610e09610100820151610120870190611dd3565b8261012082015116610140860152826101408201511661016086015263ffffffff61016082015116828601520151166101a08301520390f35b634e487b7160e01b600052602160045260246000fd5b50346101a35760a03660031901126101a357610e72611df6565b610e7a611de0565b604435906064359163ffffffff9081841680940361080c5760843593828516850361080c578660a0957f6f060bcd48b5e19796a0d51db8dec4a08f81763e5a478738160a2c0aa3c92d1b97610ecd611f90565b600180891b03968780921680610f57575b501680610f3f575b50836006556007549060201b908367ffffffff000000008316916001600160401b0319161717938460075586600354169660045416604051978852602088015260408701521617606084015260201c166080820152a180f35b6001600160601b03881b600454161760045538610ee6565b6001600160601b038a1b600354161760035538610ede565b50346101a357806003193601126101a3576020600554604051908152f35b50346101a357806003193601126101a3576040517f00000000000000000000000000000000000000000000000000000000000000006001600160a01b03168152602090f35b50346101a357806003193601126101a357602090604051908152f35b50346101a35760203660031901126101a3576020906040906001600160a01b03610192611df6565b50346101a35760403660031901126101a3576040611032611de0565b91600435815280602052209060018060a01b0316600052602052602060ff604060002054166040519015158152f35b50346101a357806003193601126101a3576020600654604051908152f35b50346101a35760603660031901126101a3576024356001600160401b038111610815576110b0903690600401611e0c565b6110b8612101565b6110c0612122565b6110cb600435612140565b60028101546001600160a01b0316929091906110e8338514611ebb565b60088301549160ff83166009811015610bcc57916020916111188460016111a99614908115611570575b50611e39565b6044356007870155600360ff198616176008870155604051604435815233907f1b342a038b7b5216cac7fae93c8c307d40f00a20830c9bace4a20972f98815438560043592a360018060a01b03600354169060068701546040519586948593849363d44c975f60e01b8552600435600486015260248501526044356044850152608060648501526084840191611ef4565b03915afa9081156113c5578591611551575b501561151c5760ff191660049081176008830155357fc88f548f498c715f57c4c8a68891b1fb4525111fb9446c71bfca14b960a395c88480a260045483926001600160a01b03909116908161149d575b505061ffff611b589216820180921161148957612710808311611481575b60038201549280840290848204148415171561146d5704908183039280841161146d5782036113d0575b81611301575b60028101546001600160a01b03168452600960205260408420805490816112d9575b505060088101805460ff19166005179055600201546040805192835260208301939093526001600160a01b031691600435917f7f7fb44862325c0115c2a04aab629b32d2887c482a9c54386da7d46afb6fe1e39190a3600160025580f35b60001982019182116112ed5755388061127b565b634e487b7160e01b86526011600452602486fd5b600281015460405163a9059cbb60e01b81526001600160a01b0390911660048201526024810183905260208180604481010381887f00000000000000000000000000000000000000000000000000000000000000006001600160a01b03165af19081156113c55785916113a6575b506112595760405162461bcd60e51b815260206004820152600a6024820152691c185e4819985a5b195960b21b6044820152606490fd5b6113bf915060203d6020116107c8576107ba8183611ccd565b3861136f565b6040513d87823e3d90fd5b7f00000000000000000000000000000000000000000000000000000000000000006001600160a01b0316803b15611469576040516304d2799360e51b8152306004820152602481018590529085908290604490829084905af180156113c55761143a575b50611253565b6001600160401b038195929511611455576040529238611434565b634e487b7160e01b82526041600452602482fd5b8480fd5b634e487b7160e01b85526011600452602485fd5b915081611229565b634e487b7160e01b83526011600452602483fd5b6020919293506024604051809481936306ed11f760e31b835260048301525afa9081156115115783916114d4575b5090388061120b565b90506020813d602011611509575b816114ef60209383611ccd565b81010312610811575161ffff8116810361081157386114cb565b3d91506114e2565b6040513d85823e3d90fd5b60405162461bcd60e51b815260206004820152600d60248201526c34b73b30b634b216b83937b7b360991b6044820152606490fd5b61156a915060203d6020116107c8576107ba8183611ccd565b386111bb565b600291501438611112565b50346101a357806003193601126101a357611594611f90565b61159c612122565b600160ff19815416176001557f62e78cea01bee320cd4e420270b5ea74000d11b0c9f74754ebdbfc544b05a2586020604051338152a180f35b50346101a357806003193601126101a3576003546040516001600160a01b039091168152602090f35b50346101a357806003193601126101a3576004546040516001600160a01b039091168152602090f35b50346101a35760203660031901126101a357600435611644612122565b600861164f82612140565b61166660018060a01b036002830154163314611ebb565b01805460ff811660098110156116b35790611685600160029314611e39565b60ff19161790557f68bdafe2fe733686b9954b9ecfc63ffad213b37a0def13e7f9d3264f7761377f8280a280f35b634e487b7160e01b85526021600452602485fd5b50346101a357806003193601126101a357602060075463ffffffff60405191831c168152f35b50346101a357806003193601126101a357602060ff600154166040519015158152f35b50346101a357602080600319360112610815576004359061172f612101565b611737612122565b61174082612140565b60018101546001600160a01b03908116913383036118dd5760088101805460ff811660098110156118c9576117759015611e39565b6001600160401b0361179463ffffffff60075416828460081c16611e72565b1642106118985760ff191660081790556003015460405163a9059cbb60e01b81526001600160a01b0390931660048401526024830152829082908187816044810103927f0000000000000000000000000000000000000000000000000000000000000000165af190811561188d578491611870575b501561183c57507f68a66a704ceacc38da3f12c63779e47866d9d72e875ec5d43237777adc666d658280a2600160025580f35b6064906040519062461bcd60e51b82526004820152600d60248201526c1c99599d5b990819985a5b1959609a1b6044820152fd5b6118879150823d84116107c8576107ba8183611ccd565b38611809565b6040513d86823e3d90fd5b60405162461bcd60e51b8152600481018790526009602482015268746f6f2d6561726c7960b81b6044820152606490fd5b634e487b7160e01b89526021600452602489fd5b60405162461bcd60e51b815260048101859052600a6024820152691b9bdd0b58db1a595b9d60b21b6044820152606490fd5b50346101a357806003193601126101a35760206040517fbb08418a67729a078f87bbc8d02a770929bb68f5bfdf134ae2ead6ed38e2f4ae8152f35b50346101a357806003193601126101a3576040517f00000000000000000000000000000000000000000000000000000000000000006001600160a01b03168152602090f35b50346101a357806003193601126101a3576119a8611f90565b60015460ff8116156119e85760ff19166001557f5db9ee0a495bf2e6ff9c91a7834c1ba4fdd244a5e8aa4e537bd38aeae4b073aa6020604051338152a180f35b604051638dfc202b60e01b8152600490fd5b50346101a35760403660031901126101a357611a14611de0565b336001600160a01b03821603611a3057610c1d9060043561208c565b60405163334bd91960e11b8152600490fd5b50346101a35760403660031901126101a357610c1d600435611a62611de0565b9080845283602052611a7a6001604086200154611fe8565b61200e565b50346101a357806003193601126101a35760206040517f3c11d16cbaffd01df69ce1c404f6340ee057498f5f00246190ea54220576a8488152f35b50346101a35760203660031901126101a357600160406020926004358152808452200154604051908152f35b50346101a35760203660031901126101a357604090600435815260086020522080549060018060a01b0390816001820154169160028201541692600382015490611b3260048401611cee565b92611b96611b4260058301611cee565b611b8860068401549660086007860154950154956001600160401b03976040519b8c9b6101a0938d5260208d015260408c015260608b01528060808b0152890190611d93565b9087820360a0890152611d93565b9360c086015260e0850152611bb2610100850160ff8316611dd3565b818160081c16610120850152818160481c1661014085015263ffffffff8160881c1661016085015260a81c166101808301520390f35b50346101a357806003193601126101a357602063ffffffff60075416604051908152f35b9050346108155760203660031901126108155760043563ffffffff60e01b81168091036108115760209250637965db0b60e01b8114908115611c50575b5015158152f35b6301ffc9a760e01b14905038611c49565b90600182811c92168015611c91575b6020831014611c7b57565b634e487b7160e01b600052602260045260246000fd5b91607f1691611c70565b6101a081019081106001600160401b03821117611cb757604052565b634e487b7160e01b600052604160045260246000fd5b90601f801991011681019081106001600160401b03821117611cb757604052565b90604051918260008254611d0181611c61565b90818452602094600191600181169081600014611d715750600114611d32575b505050611d3092500383611ccd565b565b600090815285812095935091905b818310611d59575050611d309350820101388080611d21565b85548884018501529485019487945091830191611d40565b92505050611d3094925060ff191682840152151560051b820101388080611d21565b919082519283825260005b848110611dbf575050826000602080949584010152601f8019910116010190565b602081830181015184830182015201611d9e565b906009821015610e425752565b602435906001600160a01b038216820361080c57565b600435906001600160a01b038216820361080c57565b9181601f8401121561080c578235916001600160401b03831161080c576020838186019501011161080c57565b15611e4057565b60405162461bcd60e51b815260206004820152600a6024820152696261642d73746174757360b01b6044820152606490fd5b9190916001600160401b0380809416911601918211611e8d57565b634e487b7160e01b600052601160045260246000fd5b9081602091031261080c5751801515810361080c5790565b15611ec257565b60405162461bcd60e51b815260206004820152600a6024820152693737ba16bbb7b935b2b960b11b6044820152606490fd5b908060209392818452848401376000828201840152601f01601f1916010190565b15611f1c57565b60405162461bcd60e51b8152602060048201526006602482015265373796b537b160d11b6044820152606490fd5b9291926001600160401b038211611cb75760405191611f73601f8201601f191660200184611ccd565b82948184528183011161080c578281602093846000960137010152565b3360009081527fad3228b676f7d3cd4284a5443f17f1962b36e491b30a40b2405849e597ba5fb5602052604081205460ff1615611fca5750565b6044906040519063e2517d3f60e01b82523360048301526024820152fd5b80600052600060205260406000203360005260205260ff6040600020541615611fca5750565b9060009180835282602052604083209160018060a01b03169182845260205260ff6040842054161560001461208757808352826020526040832082845260205260408320600160ff198254161790557f2f8788117e7eff1d82e926ec794901d17c78024a50270940304540a733656f0d339380a4600190565b505090565b9060009180835282602052604083209160018060a01b03169182845260205260ff6040842054166000146120875780835282602052604083208284526020526040832060ff1981541690557ff6391f5c32d9c69d2a47ea670b442974b53935d1edc7fd64eb21e047a839171b339380a4600190565b60028054146121105760028055565b604051633ee5aeb560e01b8152600490fd5b60ff6001541661212e57565b60405163d93c066560e01b8152600490fd5b6000526008602052604060002061215981541515611f15565b9056fea2646970667358221220eef64e6674ecdd2aff349935cebfcc958e4a9c02ecae29ba637329a5150732b064736f6c634300081800332f8788117e7eff1d82e926ec794901d17c78024a50270940304540a733656f0d",
  "linkReferences": {},
  "deployedLinkReferences": {}
}