{
  "_format": "hh-sol-artifact-1",
  "contractName": "StakingManager",
  "sourceName": "contracts/core/StakingManager.sol",
  "abi": [
    {
      "inputs": [
        {
          "internalType": "address",
          "name": "admin",
          "type": "address"
        },
        {
          "internalType": "address",
          "name": "edgeToken",
          "type": "address"
        },
        {
          "internalType": "address",
          "name": "nodeNft",
          "type": "address"
        },
        {
          "internalType": "address",
          "name": "treasury_",
          "type": "address"
        },
        {
          "internalType": "uint256",
          "name": "minStake_",
          "type": "uint256"
        }
      ],
      "stateMutability": "nonpayable",
      "type": "constructor"
    },
    {
      "inputs": [],
      "name": "AccessControlBadConfirmation",
      "type": "error"
    },
    {
      "inputs": [
        {
          "internalType": "address",
          "name": "account",
          "type": "address"
        },
        {
          "internalType": "bytes32",
          "name": "neededRole",
          "type": "bytes32"
        }
      ],
      "name": "AccessControlUnauthorizedAccount",
      "type": "error"
    },
    {
      "inputs": [],
      "name": "ECDSAInvalidSignature",
      "type": "error"
    },
    {
      "inputs": [
        {
          "internalType": "uint256",
          "name": "length",
          "type": "uint256"
        }
      ],
      "name": "ECDSAInvalidSignatureLength",
      "type": "error"
    },
    {
      "inputs": [
        {
          "internalType": "bytes32",
          "name": "s",
          "type": "bytes32"
        }
      ],
      "name": "ECDSAInvalidSignatureS",
      "type": "error"
    },
    {
      "inputs": [],
      "name": "EnforcedPause",
      "type": "error"
    },
    {
      "inputs": [],
      "name": "ExpectedPause",
      "type": "error"
    },
    {
      "inputs": [],
      "name": "ReentrancyGuardReentrantCall",
      "type": "error"
    },
    {
      "anonymous": false,
      "inputs": [
        {
          "indexed": true,
          "internalType": "address",
          "name": "oracle",
          "type": "address"
        }
      ],
      "name": "BenchOracleSet",
      "type": "event"
    },
    {
      "anonymous": false,
      "inputs": [
        {
          "indexed": true,
          "internalType": "address",
          "name": "jr",
          "type": "address"
        }
      ],
      "name": "JobRegistrySet",
      "type": "event"
    },
    {
      "anonymous": false,
      "inputs": [
        {
          "indexed": false,
          "internalType": "uint256",
          "name": "value",
          "type": "uint256"
        }
      ],
      "name": "MinStakeSet",
      "type": "event"
    },
    {
      "anonymous": false,
      "inputs": [
        {
          "indexed": true,
          "internalType": "address",
          "name": "worker",
          "type": "address"
        },
        {
          "indexed": false,
          "internalType": "bytes32",
          "name": "gpuHash",
          "type": "bytes32"
        },
        {
          "indexed": false,
          "internalType": "uint256",
          "name": "benchScore",
          "type": "uint256"
        }
      ],
      "name": "NodeRegistered",
      "type": "event"
    },
    {
      "anonymous": false,
      "inputs": [
        {
          "indexed": false,
          "internalType": "address",
          "name": "account",
          "type": "address"
        }
      ],
      "name": "Paused",
      "type": "event"
    },
    {
      "anonymous": false,
      "inputs": [
        {
          "indexed": true,
          "internalType": "bytes32",
          "name": "role",
          "type": "bytes32"
        },
        {
          "indexed": true,
          "internalType": "bytes32",
          "name": "previousAdminRole",
          "type": "bytes32"
        },
        {
          "indexed": true,
          "internalType": "bytes32",
          "name": "newAdminRole",
          "type": "bytes32"
        }
      ],
      "name": "RoleAdminChanged",
      "type": "event"
    },
    {
      "anonymous": false,
      "inputs": [
        {
          "indexed": true,
          "internalType": "bytes32",
          "name": "role",
          "type": "bytes32"
        },
        {
          "indexed": true,
          "internalType": "address",
          "name": "account",
          "type": "address"
        },
        {
          "indexed": true,
          "internalType": "address",
          "name": "sender",
          "type": "address"
        }
      ],
      "name": "RoleGranted",
      "type": "event"
    },
    {
      "anonymous": false,
      "inputs": [
        {
          "indexed": true,
          "internalType": "bytes32",
          "name": "role",
          "type": "bytes32"
        },
        {
          "indexed": true,
          "internalType": "address",
          "name": "account",
          "type": "address"
        },
        {
          "indexed": true,
          "internalType": "address",
          "name": "sender",
          "type": "address"
        }
      ],
      "name": "RoleRevoked",
      "type": "event"
    },
    {
      "anonymous": false,
      "inputs": [
        {
          "indexed": true,
          "internalType": "address",
          "name": "worker",
          "type": "address"
        },
        {
          "indexed": false,
          "internalType": "uint256",
          "name": "amount",
          "type": "uint256"
        },
        {
          "indexed": false,
          "internalType": "bytes",
          "name": "reason",
          "type": "bytes"
        }
      ],
      "name": "Slashed",
      "type": "event"
    },
    {
      "anonymous": false,
      "inputs": [
        {
          "indexed": true,
          "internalType": "address",
          "name": "worker",
          "type": "address"
        },
        {
          "indexed": false,
          "internalType": "uint256",
          "name": "amount",
          "type": "uint256"
        },
        {
          "indexed": false,
          "internalType": "uint256",
          "name": "newBalance",
          "type": "uint256"
        }
      ],
      "name": "Staked",
      "type": "event"
    },
    {
      "anonymous": false,
      "inputs": [
        {
          "indexed": true,
          "internalType": "address",
          "name": "treasury",
          "type": "address"
        }
      ],
      "name": "TreasurySet",
      "type": "event"
    },
    {
      "anonymous": false,
      "inputs": [
        {
          "indexed": false,
          "internalType": "address",
          "name": "account",
          "type": "address"
        }
      ],
      "name": "Unpaused",
      "type": "event"
    },
    {
      "anonymous": false,
      "inputs": [
        {
          "indexed": true,
          "internalType": "address",
          "name": "worker",
          "type": "address"
        },
        {
          "indexed": false,
          "internalType": "uint256",
          "name": "amount",
          "type": "uint256"
        },
        {
          "indexed": false,
          "internalType": "uint256",
          "name": "newBalance",
          "type": "uint256"
        }
      ],
      "name": "Unstaked",
      "type": "event"
    },
    {
      "inputs": [],
      "name": "DEFAULT_ADMIN_ROLE",
      "outputs": [
        {
          "internalType": "bytes32",
          "name": "",
          "type": "bytes32"
        }
      ],
      "stateMutability": "view",
      "type": "function"
    },
    {
      "inputs": [],
      "name": "SLASHER_ROLE",
      "outputs": [
        {
          "internalType": "bytes32",
          "name": "",
          "type": "bytes32"
        }
      ],
      "stateMutability": "view",
      "type": "function"
    },
    {
      "inputs": [],
      "name": "benchOracle",
      "outputs": [
        {
          "internalType": "address",
          "name": "",
          "type": "address"
        }
      ],
      "stateMutability": "view",
      "type": "function"
    },
    {
      "inputs": [],
      "name": "edge",
      "outputs": [
        {
          "internalType": "contract IERC20",
          "name": "",
          "type": "address"
        }
      ],
      "stateMutability": "view",
      "type": "function"
    },
    {
      "inputs": [
        {
          "internalType": "address",
          "name": "worker",
          "type": "address"
        }
      ],
      "name": "getNodeMeta",
      "outputs": [
        {
          "internalType": "bytes32",
          "name": "",
          "type": "bytes32"
        },
        {
          "internalType": "uint256",
          "name": "",
          "type": "uint256"
        },
        {
          "internalType": "uint64",
          "name": "",
          "type": "uint64"
        }
      ],
      "stateMutability": "view",
      "type": "function"
    },
    {
      "inputs": [
        {
          "internalType": "bytes32",
          "name": "role",
          "type": "bytes32"
        }
      ],
      "name": "getRoleAdmin",
      "outputs": [
        {
          "internalType": "bytes32",
          "name": "",
          "type": "bytes32"
        }
      ],
      "stateMutability": "view",
      "type": "function"
    },
    {
      "inputs": [
        {
          "internalType": "bytes32",
          "name": "role",
          "type": "bytes32"
        },
        {
          "internalType": "address",
          "name": "account",
          "type": "address"
        }
      ],
      "name": "grantRole",
      "outputs": [],
      "stateMutability": "nonpayable",
      "type": "function"
    },
    {
      "inputs": [
        {
          "internalType": "bytes32",
          "name": "role",
          "type": "bytes32"
        },
        {
          "internalType": "address",
          "name": "account",
          "type": "address"
        }
      ],
      "name": "hasRole",
      "outputs": [
        {
          "internalType": "bool",
          "name": "",
          "type": "bool"
        }
      ],
      "stateMutability": "view",
      "type": "function"
    },
    {
      "inputs": [],
      "name": "jobRegistry",
      "outputs": [
        {
          "internalType": "contract IJobRegistryView",
          "name": "",
          "type": "address"
        }
      ],
      "stateMutability": "view",
      "type": "function"
    },
    {
      "inputs": [
        {
          "internalType": "address",
          "name": "",
          "type": "address"
        }
      ],
      "name": "metaNonces",
      "outputs": [
        {
          "internalType": "uint256",
          "name": "",
          "type": "uint256"
        }
      ],
      "stateMutability": "view",
      "type": "function"
    },
    {
      "inputs": [],
      "name": "minStake",
      "outputs": [
        {
          "internalType": "uint256",
          "name": "",
          "type": "uint256"
        }
      ],
      "stateMutability": "view",
      "type": "function"
    },
    {
      "inputs": [],
      "name": "nodeNFT",
      "outputs": [
        {
          "internalType": "contract INodeNFT",
          "name": "",
          "type": "address"
        }
      ],
      "stateMutability": "view",
      "type": "function"
    },
    {
      "inputs": [
        {
          "internalType": "address",
          "name": "worker",
          "type": "address"
        }
      ],
      "name": "nodeOf",
      "outputs": [
        {
          "internalType": "uint256",
          "name": "",
          "type": "uint256"
        }
      ],
      "stateMutability": "view",
      "type": "function"
    },
    {
      "inputs": [],
      "name": "pause",
      "outputs": [],
      "stateMutability": "nonpayable",
      "type": "function"
    },
    {
      "inputs": [],
      "name": "paused",
      "outputs": [
        {
          "internalType": "bool",
          "name": "",
          "type": "bool"
        }
      ],
      "stateMutability": "view",
      "type": "function"
    },
    {
      "inputs": [
        {
          "internalType": "address",
          "name": "worker",
          "type": "address"
        },
        {
          "internalType": "bytes32",
          "name": "gpuHash",
          "type": "bytes32"
        },
        {
          "internalType": "uint256",
          "name": "benchScore",
          "type": "uint256"
        },
        {
          "internalType": "uint64",
          "name": "expiresAt",
          "type": "uint64"
        },
        {
          "internalType": "uint256",
          "name": "nonce",
          "type": "uint256"
        },
        {
          "internalType": "bytes",
          "name": "sig",
          "type": "bytes"
        }
      ],
      "name": "registerNodeSigned",
      "outputs": [],
      "stateMutability": "nonpayable",
      "type": "function"
    },
    {
      "inputs": [
        {
          "internalType": "bytes32",
          "name": "role",
          "type": "bytes32"
        },
        {
          "internalType": "address",
          "name": "callerConfirmation",
          "type": "address"
        }
      ],
      "name": "renounceRole",
      "outputs": [],
      "stateMutability": "nonpayable",
      "type": "function"
    },
    {
      "inputs": [
        {
          "internalType": "bytes32",
          "name": "role",
          "type": "bytes32"
        },
        {
          "internalType": "address",
          "name": "account",
          "type": "address"
        }
      ],
      "name": "revokeRole",
      "outputs": [],
      "stateMutability": "nonpayable",
      "type": "function"
    },
    {
      "inputs": [
        {
          "internalType": "address",
          "name": "s",
          "type": "address"
        }
      ],
      "name": "setBenchOracle",
      "outputs": [],
      "stateMutability": "nonpayable",
      "type": "function"
    },
    {
      "inputs": [
        {
          "internalType": "address",
          "name": "jr",
          "type": "address"
        }
      ],
      "name": "setJobRegistry",
      "outputs": [],
      "stateMutability": "nonpayable",
      "type": "function"
    },
    {
      "inputs": [
        {
          "internalType": "uint256",
          "name": "value",
          "type": "uint256"
        }
      ],
      "name": "setMinStake",
      "outputs": [],
      "stateMutability": "nonpayable",
      "type": "function"
    },
    {
      "inputs": [
        {
          "internalType": "address",
          "name": "t",
          "type": "address"
        }
      ],
      "name": "setTreasury",
      "outputs": [],
      "stateMutability": "nonpayable",
      "type": "function"
    },
    {
      "inputs": [
        {
          "internalType": "address",
          "name": "worker",
          "type": "address"
        },
        {
          "internalType": "uint256",
          "name": "amount",
          "type": "uint256"
        },
        {
          "internalType": "bytes",
          "name": "reason",
          "type": "bytes"
        }
      ],
      "name": "slash",
      "outputs": [],
      "stateMutability": "nonpayable",
      "type": "function"
    },
    {
      "inputs": [
        {
          "internalType": "uint256",
          "name": "amount",
          "type": "uint256"
        },
        {
          "internalType": "bytes32",
          "name": "gpuHash",
          "type": "bytes32"
        },
        {
          "internalType": "uint256",
          "name": "benchScore",
          "type": "uint256"
        }
      ],
      "name": "stake",
      "outputs": [],
      "stateMutability": "nonpayable",
      "type": "function"
    },
    {
      "inputs": [
        {
          "internalType": "address",
          "name": "",
          "type": "address"
        }
      ],
      "name": "stakeOf",
      "outputs": [
        {
          "internalType": "uint256",
          "name": "",
          "type": "uint256"
        }
      ],
      "stateMutability": "view",
      "type": "function"
    },
    {
      "inputs": [
        {
          "internalType": "bytes4",
          "name": "interfaceId",
          "type": "bytes4"
        }
      ],
      "name": "supportsInterface",
      "outputs": [
        {
          "internalType": "bool",
          "name": "",
          "type": "bool"
        }
      ],
      "stateMutability": "view",
      "type": "function"
    },
    {
      "inputs": [],
      "name": "totalStaked",
      "outputs": [
        {
          "internalType": "uint256",
          "name": "",
          "type": "uint256"
        }
      ],
      "stateMutability": "view",
      "type": "function"
    },
    {
      "inputs": [],
      "name": "treasury",
      "outputs": [
        {
          "internalType": "address",
          "name": "",
          "type": "address"
        }
      ],
      "stateMutability": "view",
      "type": "function"
    },
    {
      "inputs": [],
      "name": "unpause",
      "outputs": [],
      "stateMutability": "nonpayable",
      "type": "function"
    },
    {
      "inputs": [
        {
          "internalType": "uint256",
          "name": "amount",
          "type": "uint256"
        }
      ],
      "name": "unstake",
      "outputs": [],
      "stateMutability": "nonpayable",
      "type": "function"
    }
  ],
  "bytecode": "0x60c0346200024357601f62001d7738819003918201601f1916830191906001600160401b0383118484101762000248578160a09285926040958652833981010312620002435762000050826200025e565b91602090620000618282016200025e565b6200006e8483016200025e565b9160806200007f606083016200025e565b9101516001600255916001600160a01b03908782161562000215578116938415620001e8578116918215620001bb57169283156200018a57620000f087620000e97fa70bd512f7108f78a924d05836f49963c6d8583e3d39f5b6412eb5be70e8432a989962000273565b50620002f3565b5060805260a052600580546001600160a01b0319168317905560068190558451917f3c864541ef71378c6229510ed90f376565ee42d9c5e0904a984a9e863e6db44f600080a28152a1516119c190816200039682396080518181816104b80152818161071a01528181610f9f0152611288015260a05181818161056101528181610bc901528181610cfd01528181610f09015261135e0152f35b855162461bcd60e51b815260048101869052600a602482015269074726561737572793d360b41b6044820152606490fd5b865162461bcd60e51b815260048101879052600660248201526506e6f64653d360d41b6044820152606490fd5b865162461bcd60e51b81526004810187905260066024820152650656467653d360d41b6044820152606490fd5b865162461bcd60e51b8152600481018790526007602482015266061646d696e3d360cc1b6044820152606490fd5b600080fd5b634e487b7160e01b600052604160045260246000fd5b51906001600160a01b03821682036200024357565b6001600160a01b031660008181527fad3228b676f7d3cd4284a5443f17f1962b36e491b30a40b2405849e597ba5fb5602052604081205490919060ff16620002ef57818052816020526040822081835260205260408220600160ff19825416179055339160008051602062001d578339815191528180a4600190565b5090565b6001600160a01b031660008181527fab95ee8443670cc2f20498fec769f3646c2375509362f6df15e28d91d339511860205260408120549091907f12b42e8a160f6064dc959c6f251e3af0750ad213dbecf573b4710d67d6c28e399060ff166200039057808352826020526040832082845260205260408320600160ff1982541617905560008051602062001d57833981519152339380a4600190565b50509056fe6040608081526004908136101561001557600080fd5b600091823560e01c8062dc34c11461147557806301ffc9a71461142057806319f2de181461122557806323682c47146111fc578063248a9ca3146111d35780632e17de7814610e5c5780632f2ff15d14610e3357806336568abe14610dec578063375b3c0a14610dcd5780633f4ba83a14610d645780634262336014610d2c57806345d7046f14610ce85780635095af6414610cad5780635c975abb14610c8957806360224d3f14610c6257806361d027b314610c39578063682a914114610b83578063817b1cd214610b645780638456cb5914610b0a578063856e5234146107f55780638c80fd90146107a857806391d1485414610764578063a217fddf14610749578063adc2c98a14610705578063bd2d03271461038f578063c5a7ce111461031c578063d547741f146102de578063ef799465146102a2578063f0f44260146102055763f327be101461016a57600080fd5b346102015760203660031901126102015761018361150b565b61018b61168a565b6001600160a01b03169182156101d3575080546001600160a01b031916821790557fa9571ebb807724151820386862266d5626928f126b5f82602f60767c6c5ad81a8280a280f35b906020606492519162461bcd60e51b8352820152600860248201526706f7261636c653d360c41b6044820152fd5b8280fd5b50346102015760203660031901126102015761021f61150b565b61022761168a565b6001600160a01b0316918215610272575050600580546001600160a01b031916821790557f3c864541ef71378c6229510ed90f376565ee42d9c5e0904a984a9e863e6db44f8280a280f35b906020606492519162461bcd60e51b8352820152600a602482015269074726561737572793d360b41b6044820152fd5b5050346102da5760203660031901126102da5760209181906001600160a01b036102ca61150b565b168152600a845220549051908152f35b5080fd5b50903461020157806003193601126102015761031891356103136001610302611521565b9383875286602052862001546116e2565b6117c5565b5080f35b5050346102da5760203660031901126102da5760609181906001600160a01b0361034461150b565b168152600960205220908080519261035b846115c6565b80549384815267ffffffffffffffff6002600184015493846020850152015416938491015281519384526020840152820152f35b509190346102da5760603660031901126102da576103ab61150b565b9060249384359260443567ffffffffffffffff811161060c576103d19036908401611537565b9690916103dc611708565b6103e4611729565b7f12b42e8a160f6064dc959c6f251e3af0750ad213dbecf573b4710d67d6c28e399283600052602093600085528660002033600052855260ff876000205416156106e857506001600160a01b039182169687156106bb57610446811515611565565b878952600885528689205499818b1061068957610464828b9c61163f565b898b5260088752888b205561047b8260075461163f565b600755600554885163a9059cbb60e01b81529085166001600160a01b031688820190815260208101849052879082908d90829081906040010391897f0000000000000000000000000000000000000000000000000000000000000000165af190811561067f57928a949261051a6060937f1a0a5c81c2e13153fb1f989295e0deca0190f3c9b856051229e7985a71c1cfb2968f91610652575b5061164c565b808b5194859384528c8b850152818d8501528484013781810183018d9052601f01601f19168101030190a285875260088352848720541561055f575b86600160025580f35b7f0000000000000000000000000000000000000000000000000000000000000000169484519063682a914160e01b82528482015282818381895afa928315610648578793610610575b5050816105b6575b80610556565b843b1561060c5785928385519687948593639463591560e01b85528401525af190811561060357506105ec575b808080806105b0565b6105f59061159c565b6106005780386105e3565b80fd5b513d84823e3d90fd5b8580fd5b819750809293503d8311610641575b61062981836115e2565b8101031261063c578594519038806105a8565b600080fd5b503d61061f565b85513d89823e3d90fd5b61067291508b3d8d11610678575b61066a81836115e2565b810190611604565b38610514565b503d610660565b89513d8d823e3d90fd5b875162461bcd60e51b8152808801879052600d818701526c7374616b6520746f6f206c6f7760981b6044820152606490fd5b505050600891606494519362461bcd60e51b8552840152820152670776f726b65723d360c41b6044820152fd5b93505050604493519263e2517d3f60e01b84523390840152820152fd5b5050346102da57816003193601126102da57517f00000000000000000000000000000000000000000000000000000000000000006001600160a01b03168152602090f35b5050346102da57816003193601126102da5751908152602090f35b503461020157816003193601126102015781602093610781611521565b92358152808552209060018060a01b0316600052825260ff81600020541690519015158152f35b5034610201576020366003190112610201577fa70bd512f7108f78a924d05836f49963c6d8583e3d39f5b6412eb5be70e8432a9160209135906107e961168a565b8160065551908152a180f35b508290346102da5760c03660031901126102da5761081161150b565b92602493843590604435906064359467ffffffffffffffff90818716809703610b06576084359260a435838111610b025761084f9036908401611537565b83546001600160a01b0390811693909291908415610ad2578b4211610aa15790838d98979695949392169b8c89528b602099600a8b52205460018101809111610a8f578803610a5f578c8c918251918b8301937f8b5c08bbf55c5ff38bef39bce388b2f413ba38d46341b5f958c1e93a7dece7f18552469084015230606084015260808301528c60a08301528b60c083015260e082015261010089818301528152610120810181811089821117610a4a578d525190207f19457468657265756d205369676e6564204d6573736167653a0a3332000000008e52601c52603c8d2090868111610a38578b519261094d601f8301601f19168b01856115e2565b8184523682820111610a3457918e8a838694610973968361097c9901378401015261183a565b90929192611876565b1603610a0557507f58a43cb6f378b26d0b06088e67beef26532079b24e5c71301b7f4929a77d6354969798508551906109b4826115c6565b8582526002848301928684528881019383421685528b8d5260098752898d20915182555160018201550191511667ffffffffffffffff19825416179055600a8252848820558351928352820152a280f35b865162461bcd60e51b8152908101849052600a818b0152693130b216b9b4b3b732b960b11b6044820152606490fd5b8e80fd5b634e487b7160e01b8e52604186528e8efd5b508f604188634e487b7160e01b600052526000fd5b5050895162461bcd60e51b81528085018890526009818f0152686261642d6e6f6e636560b81b6044820152606490fd5b634e487b7160e01b8f52601187528f8ffd5b50895162461bcd60e51b8152602081870152600b818f01526a1cda59cb595e1c1a5c995960aa1b6044820152606490fd5b50895162461bcd60e51b8152602081870152600a818f01526937b930b1b63296b7b33360b11b6044820152606490fd5b8980fd5b8780fd5b5050346102da57816003193601126102da5760207f62e78cea01bee320cd4e420270b5ea74000d11b0c9f74754ebdbfc544b05a25891610b4861168a565b610b50611729565b600160ff198154161760015551338152a180f35b5050346102da57816003193601126102da576020906007549051908152f35b509190346102da57602092836003193601126102015783610ba261150b565b835163682a914160e01b81526001600160a01b0391821693810193909352829060249082907f0000000000000000000000000000000000000000000000000000000000000000165afa928315610c2e5792610bff575b5051908152f35b9091508281813d8311610c27575b610c1781836115e2565b8101031261063c57519038610bf8565b503d610c0d565b8251903d90823e3d90fd5b5050346102da57816003193601126102da5760055490516001600160a01b039091168152602090f35b50346102015782600319360112610201575490516001600160a01b03909116815260209150f35b5050346102da57816003193601126102da5760209060ff6001541690519015158152f35b5050346102da57816003193601126102da57602090517f12b42e8a160f6064dc959c6f251e3af0750ad213dbecf573b4710d67d6c28e398152f35b5050346102da57816003193601126102da57517f00000000000000000000000000000000000000000000000000000000000000006001600160a01b03168152602090f35b5050346102da5760203660031901126102da5760209181906001600160a01b03610d5461150b565b1681526008845220549051908152f35b5034610201578260031936011261020157610d7d61168a565b6001549060ff821615610dbf575060ff1916600155513381527f5db9ee0a495bf2e6ff9c91a7834c1ba4fdd244a5e8aa4e537bd38aeae4b073aa90602090a180f35b8251638dfc202b60e01b8152fd5b5050346102da57816003193601126102da576020906006549051908152f35b509190346102da57806003193601126102da57610e07611521565b90336001600160a01b03831603610e2457506103189192356117c5565b5163334bd91960e11b81528390fd5b5090346102015780600319360112610201576103189135610e576001610302611521565b611747565b509190346102da576020908160031936011261020157833591610e7d611708565b610e85611729565b610e90831515611565565b33845260088152818420549083821061119c576003546001600160a01b0392908316801561116c578260249186519283809263992ef3d960e01b8252338d8301525afa90811561064857879161113b575b5061110b5784610ef09161163f565b91826110b357835163682a914160e01b815233888201527f00000000000000000000000000000000000000000000000000000000000000008216908381602481855afa9081156110a957889161107c575b508061102f575b5050848291610f9b97985b338a526008845285878b2055610f6b8360075461163f565b600755865163a9059cbb60e01b81523391810191825260208201939093529197889283918b918391604090910190565b03927f0000000000000000000000000000000000000000000000000000000000000000165af1948515611025577f7fc4727e062e336010f2c282598ef5f14facb3de68cf8195c2f23e1454b2b74e9495610ffb91889161100e575061164c565b82519485528401523392a2600160025580f35b6106729150833d85116106785761066a81836115e2565b83513d88823e3d90fd5b813b15610b0657879060248a8389519586948593639463591560e01b85528401525af1801561064857611063575b80610f48565b8291610f9b97611073889361159c565b9750915061105d565b90508381813d83116110a2575b61109381836115e2565b81010312610b06575138610f41565b503d611089565b86513d8a823e3d90fd5b9560065483106110ca5784610f9b96978392610f53565b60649184519162461bcd60e51b8352820152601960248201527f776f756c642066616c6c2062656c6f77206d696e5374616b65000000000000006044820152fd5b835162461bcd60e51b8152808801839052600a6024820152696a6f622d61637469766560b01b6044820152606490fd5b90508281813d8311611165575b61115281836115e2565b81010312611161575138610ee1565b8680fd5b503d611148565b845162461bcd60e51b8152808901849052600a6024820152691a9c8b5b9bdd0b5cd95d60b21b6044820152606490fd5b8560649184519162461bcd60e51b83528201526012602482015271696e73756666696369656e74207374616b6560701b6044820152fd5b503461020157602036600319011261020157816020936001923581528085522001549051908152f35b5050346102da57816003193601126102da5760035490516001600160a01b039091168152602090f35b503461020157606036600319011261020157803591611242611708565b61124a611729565b611255831515611565565b80516323b872dd60e01b8152338184015230602482015260448101849052602092906001600160a01b039084816064818a7f000000000000000000000000000000000000000000000000000000000000000087165af19081156114165787916113f9575b50156113c15785903382526008855283822054926112d7878561161c565b933384526008875284868520556112f08860075461161c565b60075515611331575b5050507f1449c6dd7851abc30abf37f57715f492010519147cc2652fbc38202c18a6ee909282519485528401523392a2600160025580f35b906064869286519485938492633fbd223f60e21b84523390840152602435602484015260443560448401527f0000000000000000000000000000000000000000000000000000000000000000165af1801561102557611393575b8086916112f9565b8390813d83116113ba575b6113a881836115e2565b810103126113b6573861138b565b8480fd5b503d61139e565b5082606492519162461bcd60e51b835282015260136024820152721d1c985b9cd9995c919c9bdb4819985a5b1959606a1b6044820152fd5b6114109150853d87116106785761066a81836115e2565b386112b9565b84513d89823e3d90fd5b503461020157602036600319011261020157359063ffffffff60e01b82168092036102015760209250637965db0b60e01b8214918215611464575b50519015158152f35b6301ffc9a760e01b1491503861145b565b50346102015760203660031901126102015761148f61150b565b61149761168a565b6001600160a01b03169182156114e2575050600380546001600160a01b031916821790557fe22319d4979e2f07de6d6af5b7c162cb215c792338f44c4ea4748a32269d5b3d8280a280f35b60649250519062461bcd60e51b825260208183015260248201526306a723d360e41b6044820152fd5b600435906001600160a01b038216820361063c57565b602435906001600160a01b038216820361063c57565b9181601f8401121561063c5782359167ffffffffffffffff831161063c576020838186019501011161063c57565b1561156c57565b60405162461bcd60e51b81526020600482015260086024820152670616d6f756e743d360c41b6044820152606490fd5b67ffffffffffffffff81116115b057604052565b634e487b7160e01b600052604160045260246000fd5b6060810190811067ffffffffffffffff8211176115b057604052565b90601f8019910116810190811067ffffffffffffffff8211176115b057604052565b9081602091031261063c5751801515810361063c5790565b9190820180921161162957565b634e487b7160e01b600052601160045260246000fd5b9190820391821161162957565b1561165357565b60405162461bcd60e51b815260206004820152600f60248201526e1d1c985b9cd9995c8819985a5b1959608a1b6044820152606490fd5b3360009081527fad3228b676f7d3cd4284a5443f17f1962b36e491b30a40b2405849e597ba5fb5602052604081205460ff16156116c45750565b6044906040519063e2517d3f60e01b82523360048301526024820152fd5b80600052600060205260406000203360005260205260ff60406000205416156116c45750565b60028054146117175760028055565b604051633ee5aeb560e01b8152600490fd5b60ff6001541661173557565b60405163d93c066560e01b8152600490fd5b9060009180835282602052604083209160018060a01b03169182845260205260ff604084205416156000146117c057808352826020526040832082845260205260408320600160ff198254161790557f2f8788117e7eff1d82e926ec794901d17c78024a50270940304540a733656f0d339380a4600190565b505090565b9060009180835282602052604083209160018060a01b03169182845260205260ff6040842054166000146117c05780835282602052604083208284526020526040832060ff1981541690557ff6391f5c32d9c69d2a47ea670b442974b53935d1edc7fd64eb21e047a839171b339380a4600190565b815191906041830361186b5761186492506020820151906060604084015193015160001a906118fb565b9192909190565b505060009160029190565b60048110156118e55780611888575050565b600181036118a25760405163f645eedf60e01b8152600490fd5b600281036118c35760405163fce698f760e01b815260048101839052602490fd5b6003146118cd5750565b602490604051906335e2f38360e21b82526004820152fd5b634e487b7160e01b600052602160045260246000fd5b91907f7fffffffffffffffffffffffffffffff5d576e7357a4501ddfe92f46681b20a0841161197f57926020929160ff608095604051948552168484015260408301526060820152600092839182805260015afa156119735780516001600160a01b0381161561196a57918190565b50809160019190565b604051903d90823e3d90fd5b5050506000916003919056fea26469706673582212207302296bc873de5f865b50cf8c67019379ff6a19ad402b241f5d0f4d20003f4964736f6c634300081800332f8788117e7eff1d82e926ec794901d17c78024a50270940304540a733656f0d",
  "linkReferences": {},
  "deployedLinkReferences": {}
}